{
  "contractName": "DappTokenSale",
  "abi": [
    {
      "inputs": [
        {
          "internalType": "contract DappToken",
          "name": "_tokenContract",
          "type": "address"
        },
        {
          "internalType": "uint256",
          "name": "_tokenPrice",
          "type": "uint256"
        }
      ],
      "payable": false,
      "stateMutability": "nonpayable",
      "type": "constructor"
    },
    {
      "anonymous": false,
      "inputs": [
        {
          "indexed": false,
          "internalType": "address",
          "name": "_buyer",
          "type": "address"
        },
        {
          "indexed": false,
          "internalType": "uint256",
          "name": "_amount",
          "type": "uint256"
        }
      ],
      "name": "Sell",
      "type": "event"
    },
    {
      "constant": true,
      "inputs": [],
      "name": "tokenContract",
      "outputs": [
        {
          "internalType": "contract DappToken",
          "name": "",
          "type": "address"
        }
      ],
      "payable": false,
      "stateMutability": "view",
      "type": "function"
    },
    {
      "constant": true,
      "inputs": [],
      "name": "tokenPrice",
      "outputs": [
        {
          "internalType": "uint256",
          "name": "",
          "type": "uint256"
        }
      ],
      "payable": false,
      "stateMutability": "view",
      "type": "function"
    },
    {
      "constant": true,
      "inputs": [],
      "name": "tokensSold",
      "outputs": [
        {
          "internalType": "uint256",
          "name": "",
          "type": "uint256"
        }
      ],
      "payable": false,
      "stateMutability": "view",
      "type": "function"
    },
    {
      "constant": false,
      "inputs": [
        {
          "internalType": "uint256",
          "name": "_numberOfTokens",
          "type": "uint256"
        }
      ],
      "name": "buyTokens",
      "outputs": [],
      "payable": true,
      "stateMutability": "payable",
      "type": "function"
    }
  ],
  "bytecode": "0x608060405234801561001057600080fd5b5060405161032e38038061032e8339818101604052604081101561003357600080fd5b810190808051906020019092919080519060200190929190505050336000806101000a81548173ffffffffffffffffffffffffffffffffffffffff021916908373ffffffffffffffffffffffffffffffffffffffff16021790555081600160006101000a81548173ffffffffffffffffffffffffffffffffffffffff021916908373ffffffffffffffffffffffffffffffffffffffff160217905550806002819055505050610247806100e76000396000f3fe60806040526004361061003f5760003560e01c80633610724e14610044578063518ab2a81461007257806355a373d61461009d5780637ff9b596146100f4575b600080fd5b6100706004803603602081101561005a57600080fd5b810190808035906020019092919050505061011f565b005b34801561007e57600080fd5b506100876101b4565b6040518082815260200191505060405180910390f35b3480156100a957600080fd5b506100b26101ba565b604051808273ffffffffffffffffffffffffffffffffffffffff1673ffffffffffffffffffffffffffffffffffffffff16815260200191505060405180910390f35b34801561010057600080fd5b506101096101e0565b6040518082815260200191505060405180910390f35b61012b816002546101e6565b341461013657600080fd5b806003600082825401925050819055507f5e5e995ce3133561afceaa51a9a154d5db228cd7525d34df5185582c18d3df093382604051808373ffffffffffffffffffffffffffffffffffffffff1673ffffffffffffffffffffffffffffffffffffffff1681526020018281526020019250505060405180910390a150565b60035481565b600160009054906101000a900473ffffffffffffffffffffffffffffffffffffffff1681565b60025481565b600080821480610203575082828385029250828161020057fe5b04145b61020c57600080fd5b9291505056fea265627a7a723158208c743585562f5546e9997f6ae93ba65c043509f0fb3dc284552389cd2fcbdb7d64736f6c63430005100032",
  "source": "pragma solidity ^0.5.6;\n\nimport \"./DappToken.sol\";\n// See how to import library\n// import \"https://github.com/dapphub/ds-math/blob/master/src/math.sol\";\n\ncontract DappTokenSale {\n    address admin; // state variabe\n    DappToken public tokenContract;\n    uint256 public tokenPrice;\n    uint256 public tokensSold;\n\n    event Sell(address _buyer, uint256 _amount);\n\n    constructor(DappToken _tokenContract, uint256 _tokenPrice) public {\n        // Assign an admin. External account on the blockchain\n        admin = msg.sender;\n        // Token Contract\n        tokenContract = _tokenContract;\n        // Token Price\n        tokenPrice = _tokenPrice;\n    }\n    \n    function multiply(uint x, uint y) internal pure returns (uint z) {\n        require(y == 0 || (z = x * y) / y == x);\n    }\n\n\n    // payable is modifier that allows a function in solidity to receive ether\n    function buyTokens(uint256 _numberOfTokens) public payable {\n        // require that the value is equal to tokens * tokenPrice\n        require(msg.value == multiply(_numberOfTokens, tokenPrice));\n\n        // require that there are enough tokens in the contract\n        // this can be carried out by transferring tokens using transfer\n        // tokenContract.transfer()\n\n        // require that a transfer is successful\n        // keep track of the tokens sold\n        tokensSold += _numberOfTokens;\n\n        // trigger a Sell Event\n        // buyer - msg.sender\n        emit Sell(msg.sender, _numberOfTokens);\n    }\n}",
  "sourcePath": "/home/gaurav/Work/blockchain/DappUniBootCamp/token_sale/contracts/DappTokenSale.sol",
  "compiler": {
    "name": "solc",
    "version": "0.5.16+commit.9c3226ce.Emscripten.clang"
  },
  "schemaVersion": "3.4.3",
  "updatedAt": "2022-01-05T07:56:55.230Z",
  "networkType": "ethereum",
  "devdoc": {
    "methods": {}
  },
  "userdoc": {
    "methods": {}
  }
}